:020000040800F2
:100000000028002009120008291000082F100008FD
:10001000351000083B1000084110000800000000E7
:100020000000000000000000000000004710000871
:1000300053100008000000005F1000086B1000085B
:100040005112000851120008511200085112000804
:1000500051120008511200085112000851120008F4
:1000600051120008511200085112000851120008E4
:1000700051120008511200085112000851120008D4
:1000800051120008511200085112000851120008C4
:1000900051120008511200085112000851120008B4
:1000A00051120008511200085112000851120008A4
:1000B00079100008511200080000000051120008D9
:1000C000511200080000000000000000511200085A
:1000D000000000005112000851120008000000004A
:1000E00051120008511200085112000800000000CF
:1000F0000000000000000000000000000000000000
:0C01000000000000000000005FF808F1A3
:10010C0010B5054C237833B9044B13B10448AFF345
:10011C0000800123237010BD280000200000000087
:10012C006C28000808B5034B1BB103490348AFF317
:10013C00008008BD000000002C0000206C28000886
:10014C0080B582B000AF78607B68092B00F28081AB
:10015C0001A252F823F000BF8D010008D501000860
:10016C001D02000865020008AD020008F502000837
:10017C003D03000885030008CD03000815040008A2
:10018C0000220121B54801F049FB00220221B348AD
:10019C0001F044FB00220421B04801F03FFB002297
:1001AC000821AE4801F03AFB00221021AB4801F0C7
:1001BC0035FB00222021A94801F030FB012240210F
:1001CC00A64801F02BFB44E101220121A34801F0D8
:1001DC0025FB00220221A14801F020FB0022042172
:1001EC009E4801F01BFB012208219C4801F016FBE4
:1001FC0001221021994801F011FB0122202197487E
:10020C0001F00CFB01224021944801F007FB20E196
:10021C0000220121914801F001FB002202218F48AC
:10022C0001F0FCFA012204218C4801F0F7FA0022BB
:10023C0008218A4801F0F2FA00221021874801F0C7
:10024C00EDFA01222021854801F0E8FA0022402134
:10025C00824801F0E3FAFCE0002201217F4801F022
:10026C00DDFA002202217D4801F0D8FA0022042197
:10027C007A4801F0D3FA00220821784801F0CEFA2E
:10028C0001221021754801F0C9FA0122202173487E
:10029C0001F0C4FA00224021704801F0BFFAD8E006
:1002AC00012201216D4801F0B9FA002202216B48AC
:1002BC0001F0B4FA00220421684801F0AFFA0122DF
:1002CC000821664801F0AAFA01221021634801F0C6
:1002DC00A5FA00222021614801F0A0FA0022402159
:1002EC005E4801F09BFAB4E0002201215B4801F06A
:1002FC0095FA01220221594801F090FA00220421BA
:10030C00564801F08BFA00220821544801F086FA75
:10031C0001221021514801F081FA002220214F487E
:10032C0001F07CFA002240214C4801F077FA90E071
:10033C0000220121494801F071FA012202214748AB
:10034C0001F06CFA00220421444801F067FA002203
:10035C000821424801F062FA002210213F4801F0C6
:10036C005DFA002220213D4801F058FA002240217C
:10037C003A4801F053FA6CE000220121374801F0B1
:10038C004DFA00220221354801F048FA00220421DE
:10039C00324801F043FA01220821304801F03EFABC
:1003AC00012210212D4801F039FA012220212B487D
:1003BC0001F034FA01224021284801F02FFA48E0DC
:1003CC0000220121254801F029FA002202212348AC
:1003DC0001F024FA00220421204801F01FFA002227
:1003EC0008211E4801F01AFA002210211B4801F0C6
:1003FC0015FA00222021194801F010FA00224021A0
:10040C00164801F00BFA24E000220121134801F0F8
:10041C0005FA00220221114801F000FA0022042101
:10042C000E4801F0FBF9002208210C4801F0F6F906
:10043C0001221021094801F0F1F90022202107487E
:10044C0001F0ECF900224021044801F0E7F900E04A
:10045C0000BF00BF0837BD4680BD00BF000C014087
:10046C0080B582B000AF0346FB71FB79002B15D130
:10047C0000224021314801F0D1F9012280212F487E
:10048C0001F0CCF901224FF480712C4801F0C6F92F
:10049C0001224FF40071294801F0C0F9FB79012BBE
:1004AC0015D101224021254801F0B8F90022802104
:1004BC00224801F0B3F901224FF480711F4801F07A
:1004CC00ADF901224FF400711C4801F0A7F9FB793A
:1004DC00022B15D101224021184801F09FF901226D
:1004EC008021164801F09AF900224FF480711348CC
:1004FC0001F094F901224FF40071104801F08EF9CB
:10050C00FB79032B15D1012240210C4801F086F90F
:10051C0001228021094801F081F901224FF48071F8
:10052C00064801F07BF900224FF40071034801F0FA
:10053C0075F900BF0837BD4680BD00BF00080140FB
:10054C0080B584B000AF78607B685A4203F0030337
:10055C0002F0030258BF5342FB60FB68032B3FD8E9
:10056C0001A252F823F000BF850500089F05000882
:10057C00B9050008D30500080020FFF771FF204AD9
:10058C00FB6852F823301846FFF7DAFD0123FB60B5
:10059C0031E00120FFF764FF194AFB6852F8233061
:1005AC001846FFF7CDFD0223FB6024E00220FFF785
:1005BC0057FF134AFB6852F823301846FFF7C0FD6B
:1005CC000323FB6017E00320FFF74AFF0C4AFB688C
:1005DC0052F823301846FFF7B3FD0423FB600AE002
:1005EC000020FFF73DFF064A7B6852F8233018467F
:1005FC00FFF7A6FD00BF00BF1037BD4680BD00BF92
:10060C000000002080B483B000AF786039607B6854
:10061C00184A82FB03129210DB17D31A164A136086
:10062C007968144B83FB01239A10CB17D21A13460B
:10063C009B0013445B00CA1A0F4B5A603B680D4A6F
:10064C0082FB03129210DB17D31A0B4A93603968A2
:10065C00084B83FB01239A10CB17D21A13469B002D
:10066C0013445B00CA1A044BDA6000BF0C37BD465A
:10067C0080BC7047676666660000002080B582B05B
:10068C0000AF0346FB71FB79C02B3ED0C02B00F3AF
:10069C00CF80802B6AD0802B00F3CA80002B03D034
:1006AC00332B00F09480C3E001224FF480717B481F
:1006BC0001F0B4F801224FF40071784801F0AEF863
:1006CC0001224FF48061754801F0A8F801224FF423
:1006DC000061724801F0A2F801224FF480516F487A
:1006EC0001F09CF801224FF400516C4801F096F88F
:1006FC0001224FF48041694801F090F801224FF437
:10070C000041664801F08AF8C3E001224FF4807181
:10071C00624801F083F801224FF400715F4801F048
:10072C007DF800224FF480615C4801F077F80022DC
:10073C004FF40061594801F071F800224FF48051D8
:10074C00564801F06BF800224FF40051534801F069
:10075C0065F800224FF48041504801F05FF8002208
:10076C004FF400414D4801F059F892E001224FF44A
:10077C0080714A4801F052F800224FF4007147484A
:10078C0001F04CF800224FF48061444801F046F827
:10079C0000224FF40061414801F040F800224FF470
:1007AC0080513E4801F03AF800224FF400513B488A
:1007BC0001F034F800224FF48041384801F02EF853
:1007CC0000224FF40041354801F028F861E0002286
:1007DC004FF48071314801F021F800224FF4007180
:1007EC002E4801F01BF801224FF480612B4801F0D8
:1007FC0015F801224FF40061284801F00FF800228F
:10080C004FF48051254801F009F800224FF40051B3
:10081C00224801F003F801224FF480411F4800F0F8
:10082C00FDFF01224FF400411C4800F0F7FF30E0BF
:10083C0001224FF48071194800F0F0FF01224FF4AF
:10084C000071164800F0EAFF01224FF48061134852
:10085C0000F0E4FF01224FF40061104800F0DEFFCD
:10086C0001224FF480510D4800F0D8FF01224FF4C3
:10087C0000510A4800F0D2FF01224FF48041074892
:10088C0000F0CCFF01224FF40041044800F0C6FFF9
:10089C0000BF00BF0837BD4680BD00BF000C014043
:1008AC0080B582B000AF78607B68072B00F28E8138
:1008BC0001A252F823F000BFE50800084309000824
:1008CC00A1090008FF0900085D0A0008BB0A00081E
:1008DC00190B0008770B000800220421BA4800F01D
:1008EC009DFF01220821B84800F098FF01224FF427
:1008FC008061B54800F092FF01224FF40061B248CC
:10090C0000F08CFF01224FF48051AF4800F086FFBD
:10091C0001224FF40051AC4800F080FF01224FF44B
:10092C008041A94800F07AFF01224FF40041A6480B
:10093C0000F074FF79E101220421A34800F06EFF5E
:10094C0000220821A04800F069FF01224FF48061C9
:10095C009D4800F063FF01224FF400619A4800F0BB
:10096C005DFF01224FF48051974800F057FF0122A0
:10097C004FF40051944800F051FF01224FF4804194
:10098C00914800F04BFF01224FF400418E4800F0DB
:10099C0045FF4AE1012204218B4800F03FFF012270
:1009AC000821894800F03AFF00224FF48061864804
:1009BC0000F034FF01224FF40061834800F02EFF59
:1009CC0001224FF48051804800F028FF01224FF49F
:1009DC0000517D4800F022FF01224FF480417A48FB
:1009EC0000F01CFF01224FF40041774800F016FF85
:1009FC001BE101220421744800F010FF01220821A0
:100A0C00714800F00BFF01224FF480616E4800F03A
:100A1C0005FF00224FF400616B4800F0FFFE01223D
:100A2C004FF48051684800F0F9FE01224FF4005158
:100A3C00654800F0F3FE01224FF48041624800F05B
:100A4C00EDFE01224FF400415F4800F0E7FEECE0C0
:100A5C00012204215C4800F0E1FE012208215A48E1
:100A6C0000F0DCFE01224FF48061574800F0D6FE06
:100A7C0001224FF40061544800F0D0FE00224FF4E4
:100A8C008051514800F0CAFE01224FF400514E48EB
:100A9C0000F0C4FE01224FF480414B4800F0BEFE32
:100AAC0001224FF40041484800F0B8FEBDE001229D
:100ABC000421454800F0B2FE01220821424800F012
:100ACC00ADFE01224FF480613F4800F0A7FE0122E9
:100ADC004FF400613C4800F0A1FE01224FF480511C
:100AEC00394800F09BFE00224FF40051364800F0CC
:100AFC0095FE01224FF48041334800F08FFE012215
:100B0C004FF40041304800F089FE8EE001220421B0
:100B1C002D4800F083FE012208212B4800F07EFEB8
:100B2C0001224FF48061284800F078FE01224FF436
:100B3C000061254800F072FE01224FF480512248DA
:100B4C0000F06CFE01224FF400511F4800F066FECD
:100B5C0000224FF480411C4800F060FE01224FF44B
:100B6C000041194800F05AFE5FE0012204211648AA
:100B7C0000F054FE01220821134800F04FFE012220
:100B8C004FF48061104800F049FE01224FF40061DF
:100B9C000D4800F043FE01224FF480510A4800F04A
:100BAC003DFE01224FF40051074800F037FE0122B0
:100BBC004FF48041044800F031FE00224FF4004114
:100BCC00014800F02BFE30E0000801400122042116
:100BDC001B4800F023FE01220821194800F01EFEDC
:100BEC0001224FF48061164800F018FE01224FF4E8
:100BFC000061134800F012FE01224FF4805110489E
:100C0C0000F00CFE01224FF400510D4800F006FEDE
:100C1C0001224FF480410A4800F000FE01224FF4FB
:100C2C000041074800F0FAFD00BF064A7B681344F8
:100C3C001B781846FFF722FD00BF0837BD4680BD64
:100C4C00000801401400002080B584B000AF00F013
:100C5C00FBFA00F09FF800F025F900F0D7F84548B2
:100C6C0001F03AFA1223FB600723BB6027237B6059
:100C7C0000233B60642000F009FA642000F01AFAAB
:100C8C00642000F031FA642000F048FA3A4B00225C
:100C9C001A70394BC0225A70374B80229A70364BDF
:100CAC003322DA70344B33221A71334B80225A714F
:100CBC00314BC0229A71304B0022DA712F4B1B68DA
:100CCC00012B21D120212E4800F0C0FD4FF47A7069
:100CDC0000F0DCF97B6801337B607B683B2B04DD27
:100CEC0000237B60BB680133BB60BB683B2B04DD1E
:100CFC000023BB60FB680133FB60FB68172B01DD35
:100D0C000023FB60FFF77EFC1E4B1B68012B0DD1F3
:100D1C003B685A1C3A601846FFF712FC3B68032BE1
:100D2C0001DD00233B60FA2000F0C4F9164B1B6870
:100D3C00012B07D11021124800F088FD4FF4FA70F6
:100D4C0000F0D2F9114B1B68012BB7D1104B1B686B
:100D5C005A1C0F490A601846FFF7A2FD0C4B1B6882
:100D6C00072B02DD0A4B00221A60322000F0D6F964
:100D7C00A4E700BF680000201400002048000020F9
:100D8C0000080140500000205800002060000020A6
:100D9C006400002080B590B000AF07F11803282242
:100DAC000021184601F054FD3B1D00221A605A60C8
:100DBC009A60DA601A610223BB610123BB621023C3
:100DCC00FB6200237B6307F11803184600F058FD03
:100DDC000346002B01D000F0C5F80F237B600023E5
:100DEC00BB600023FB6000233B6100237B613B1D48
:100DFC000021184600F0C4FF0346002B01D000F080
:100E0C00B1F800BF4037BD4680BD000080B586B04C
:100E1C0000AF07F1080300221A605A609A60DA608A
:100E2C003B4600221A605A601D4B4FF080421A60FC
:100E3C001B4B41F63F725A60194B00229A60184BBB
:100E4C000922DA60164B00221A61154B00229A61B6
:100E5C00134801F0F1F80346002B01D000F082F8A2
:100E6C004FF48053BB6007F1080319460C4801F09E
:100E7C0087FA0346002B01D000F074F800233B6086
:100E8C0000237B603B461946054801F053FC0346A2
:100E9C00002B01D000F066F800BF1837BD4680BDAE
:100EAC006800002080B586B000AF07F1080300226F
:100EBC001A605A609A60DA60224B9B69214A43F0AF
:100ECC00040393611F4B9B6903F004037B607B68F5
:100EDC001C4B9B691B4A43F008039361194B9B699C
:100EEC0003F008033B603B6800224FF6FC71164888
:100EFC0000F094FC00224FF67F71144800F08EFC39
:100F0C004FF6FC73BB600123FB6000233B610223A3
:100F1C007B6107F1080319460B4800F005FB4FF6FF
:100F2C007F73BB600123FB6000233B6102237B6169
:100F3C0007F108031946054800F0F6FA00BF183708
:100F4C00BD4680BD0010024000080140000C01406D
:100F5C0080B582B000AF786000F0FAF800BF0837B7
:100F6C00BD4680BD80B400AF72B600BFFEE7000086
:100F7C0080B485B000AF154B9B69144A43F0010354
:100F8C009361124B9B6903F00103BB60BB680F4B71
:100F9C00DB690E4A43F08053D3610C4BDB6903F0E1
:100FAC0080537B607B680A4B5B68FB60FB6823F0BB
:100FBC00E063FB60FB6843F08063FB60044AFB6802
:100FCC00536000BF1437BD4680BC70470010024010
:100FDC000000014080B584B000AF78607B681B686E
:100FEC00B3F1804F13D10C4BDB690B4A43F0010377
:100FFC00D361094BDB6903F00103FB60FB68002242
:10100C0000211C2000F059FA1C2000F072FA00BFDD
:10101C001037BD4680BD00BF0010024080B400AF49
:10102C00FEE780B400AFFEE780B400AFFEE780B40B
:10103C0000AFFEE780B400AFFEE780B400AF00BFA6
:10104C00BD4680BC704780B400AF00BFBD4680BCBD
:10105C00704780B400AF00BFBD4680BC704780B500
:10106C0000AF00F037F900BF80BD000080B500AFC5
:10107C00024801F07DF800BF80BD00BF6800002071
:10108C0080B400AF00BFBD4680BC704780B483B055
:10109C0000AF7860054B1B687A6892FBF3F3044A47
:1010AC00136000BF0C37BD4680BC70471000002099
:1010BC004400002080B483B000AF7860074B1B68FD
:1010CC007A6892FBF3F3064A1360064B00221A600F
:1010DC0000BF0C37BD4680BC704700BF100000201D
:1010EC004C0000205000002080B483B000AF78602A
:1010FC00074B1B687A6892FBF3F3064A1360064BA6
:10110C0000221A6000BF0C37BD4680BC704700BF80
:10111C0010000020540000205800002080B483B040
:10112C0000AF7860074B1B687A6892FBF3F3064AB2
:10113C001360064B00221A6000BF0C37BD4680BC02
:10114C00704700BF100000205C00002060000020F1
:10115C0080B400AF214B1B68002B0BDD1F4B1B68B1
:10116C00013B1E4A13601D4B1B68002B02D11C4B0C
:10117C0001221A601B4B1B68002B0BDD194B1B68E3
:10118C00013B184A1360174B1B68002B02D1164BFE
:10119C0001221A60154B1B68002B0BDD134B1B68CF
:1011AC00013B124A1360114B1B68002B02D1104BF0
:1011BC0001221A600F4B1B68002B0BDD0D4B1B68BB
:1011CC00013B0C4A13600B4B1B68002B02D10A4BE2
:1011DC0001221A6000BFBD4680BC7047440000204D
:1011EC00480000204C00002050000020540000203B
:1011FC00580000205C00002060000020FFF740FF3A
:10120C000B480C490C4A002302E0D458C450043358
:10121C00C4188C42F9D3094A094C002301E013602D
:10122C000432A242FBD301F0EFFAFFF70DFD704739
:10123C000000002028000020B02800082800002012
:10124C00B4000020FEE7000080B500AF084B1B681F
:10125C00074A43F010031360032000F023F90F201A
:10126C0000F008F8FFF784FE0023184680BD00BF8D
:10127C000020024080B582B000AF7860124B1A6833
:10128C00124B1B7819464FF47A73B3FBF1F3B2FB94
:10129C00F3F3184600F03BF90346002B01D0012371
:1012AC000EE07B680F2B0AD8002279684FF0FF30D4
:1012BC0000F003F9064A7B681360002300E0012369
:1012CC0018460837BD4680BD1C00002024000020B5
:1012DC002000002080B400AF054B1B781A46054B4C
:1012EC001B681344034A136000BFBD4680BC7047A3
:1012FC0024000020B000002080B400AF024B1B681B
:10130C001846BD4680BC7047B000002080B485B044
:10131C0000AF78607B6803F00703FB600C4BDB6865
:10132C00BB60BA684FF6FF031340BB60FB681A0240
:10133C00BB68134343F0BF6343F40033BB60044A00
:10134C00BB68D36000BF1437BD4680BC704700BF7C
:10135C0000ED00E080B400AF044BDB681B0A03F027
:10136C0007031846BD4680BC704700BF00ED00E087
:10137C0080B483B000AF0346FB7197F90730002BA4
:10138C000BDBFB7903F01F02064997F907305B0969
:10139C00012000FA02F241F8232000BF0C37BD46B1
:1013AC0080BC704700E100E080B483B000AF03461E
:1013BC003960FB7197F90730002B0ADB3B68DAB216
:1013CC000C4997F907301201D2B20B4483F8002371
:1013DC000AE03B68DAB20849FB7903F00F03043BDF
:1013EC001201D2B20B441A7600BF0C37BD4680BC3A
:1013FC00704700BF00E100E000ED00E080B489B070
:10140C0000AFF860B9607A60FB6803F00703FB611A
:10141C00FB69C3F10703042B28BF0423BB61FB69E1
:10142C000433062B02D9FB69033B00E000237B61EC
:10143C004FF0FF32BB6902FA03F3DA43BB681A4080
:10144C007B699A404FF0FF317B6901FA03F3D94372
:10145C007B680B40134318462437BD4680BC70474D
:10146C0080B582B000AF78607B68013BB3F1807FC0
:10147C0001D301230FE00A4A7B68013B53600F2123
:10148C004FF0FF30FFF790FF054B00229A60044BA2
:10149C0007221A60002318460837BD4680BD00BFDE
:1014AC0010E000E080B582B000AF78607868FFF79C
:1014BC002DFF00BF0837BD4680BD80B586B000AF9C
:1014CC000346B9607A60FB7300237B61FFF742FF30
:1014DC0078617A68B9687869FFF790FF024697F9E6
:1014EC000F3011461846FFF75FFF00BF1837BD4697
:1014FC0080BD80B582B000AF0346FB7197F9073011
:10150C001846FFF735FF00BF0837BD4680BD80B5D4
:10151C0082B000AF78607868FFF7A2FF03461846E8
:10152C000837BD4680BD000080B48BB000AF78603A
:10153C00396000237B6200233B6248E101227B6A15
:10154C0002FA03F3FB613B681B68FA691340BB6149
:10155C00BA69FB699A4240F037813B685B68A34AE1
:10156C0093425ED0A14A934275D8A14A934258D077
:10157C009F4A93426FD89F4A934252D09D4A9342BE
:10158C0069D89D4A93424CD09B4A934263D89B4A5C
:10159C00934246D0994A93425DD8122B2AD8122BEB
:1015AC0059D801A252F823F02F160008091600088A
:1015BC001B1600085D160008631600086316000869
:1015CC00631600086316000863160008631600080B
:1015DC0063160008631600086316000863160008FB
:1015EC00631600086316000863160008111600083D
:1015FC0025160008824A934213D02CE03B68DB6826
:10160C003B6229E03B68DB6804333B6224E03B68C7
:10161C00DB6808333B621FE03B68DB680C333B62E2
:10162C001AE03B689B68002B02D104233B6213E059
:10163C003B689B68012B05D108233B627B68FA69E8
:10164C001A6109E008233B627B68FA695A6103E07E
:10165C0000233B6200E000BFBB69FF2B01D87B6815
:10166C0001E07B6804337B61BB69FF2B02D87B6A8A
:10167C009B0002E07B6A083B9B003B617B691A681C
:10168C000F213B6901FA03F3DB431A40396A3B69CA
:10169C0001FA03F31A437B691A603B685B6803F039
:1016AC008053002B00F09080564B9B69554A43F0B9
:1016BC0001039361534B9B6903F00103BB60BB684F
:1016CC00514A7B6A9B08023352F82330FB607B6AD9
:1016DC0003F003039B000F2202FA03F3DB43FA68C7
:1016EC001340FB607B68494A93420DD07B68484AA3
:1016FC00934207D07B68474A934201D1022304E00E
:10170C00032302E0012300E000237A6A02F00302C3
:10171C0092009340FA681343FB603B497B6A9B0839
:10172C000233FA6841F823203B685B6803F48013AA
:10173C00002B06D0384B9A683749BB6913438B6032
:10174C0006E0354B9A68BB69DB43334913408B6029
:10175C003B685B6803F40013002B06D02E4BDA6851
:10176C002D49BB691343CB6006E02B4BDA68BB6990
:10177C00DB4329491340CB603B685B6803F40033BF
:10178C00002B06D0244B5A682349BB6913434B608A
:10179C0006E0214B5A68BB69DB431F4913404B6081
:1017AC003B685B6803F48033002B06D01A4B1A6835
:1017BC001949BB6913430B6006E0174B1A68BB69E8
:1017CC00DB43154913400B607B6A01337B623B683A
:1017DC001A687B6A22FA03F3002B7FF4AFAE00BFCA
:1017EC0000BF2C37BD4680BC704700BF00003210D4
:1017FC000000311000002210000021100000121017
:10180C0000001110001002400000014000080140CF
:10181C00000C0140001001400004014080B483B072
:10182C0000AF78600B467B8013467B707B78002B77
:10183C0003D07A887B681A6103E07B881A047B6882
:10184C001A6100BF0C37BD4680BC704780B485B0B0
:10185C0000AF78600B467B807B68DB68FB607A8826
:10186C00FB6813401A04FB68D9437B880B401A436E
:10187C007B681A6100BF1437BD4680BC70470000FE
:10188C0080B586B000AF78607B68002B01D1012356
:10189C006CE27B681B6803F00103002B00F087806F
:1018AC00924B5B6803F00C03042B0CD08F4B5B68E2
:1018BC0003F00C03082B12D18C4B5B6803F48033C0
:1018CC00B3F5803F0BD1894B1B6803F40033002B1D
:1018DC006CD07B685B68002B68D1012346E27B6887
:1018EC005B68B3F5803F06D1804B1B687F4A43F49D
:1018FC00803313602EE07B685B68002B0CD17B4B34
:10190C001B687A4A23F480331360784B1B68774A40
:10191C0023F4802313601DE07B685B68B3F5A02F74
:10192C000CD1724B1B68714A43F4802313606F4BCC
:10193C001B686E4A43F4803313600BE06B4B1B68DF
:10194C006A4A23F480331360684B1B68674A23F49C
:10195C00802313607B685B68002B13D0FFF7CCFCF3
:10196C00386108E0FFF7C8FC02463B69D31A642BC8
:10197C0001D90323FAE15D4B1B6803F40033002B00
:10198C00F0D014E0FFF7B8FC386108E0FFF7B4FCC6
:10199C0002463B69D31A642B01D90323E6E1534B6E
:1019AC001B6803F40033002BF0D100E000BF7B6810
:1019BC001B6803F00203002B63D04C4B5B6803F0F5
:1019CC000C03002B0BD0494B5B6803F00C03082B6A
:1019DC001CD1464B5B6803F48033002B16D1434B70
:1019EC001B6803F00203002B05D07B681B69012BDD
:1019FC0001D00123BAE13D4B1B6823F0F8027B6850
:101A0C005B69DB00394913430B603AE07B681B6967
:101A1C00002B20D0364B01221A60FFF76DFC386189
:101A2C0008E0FFF769FC02463B69D31A022B01D987
:101A3C0003239BE12D4B1B6803F00203002BF0D01A
:101A4C002A4B1B6823F0F8027B685B69DB00274993
:101A5C0013430B6015E0264B00221A60FFF74CFC79
:101A6C00386108E0FFF748FC02463B69D31A022BA9
:101A7C0001D903237AE11D4B1B6803F00203002BF1
:101A8C00F0D17B681B6803F00803002B3AD07B680D
:101A9C009B69002B19D0174B01221A60FFF72CFC05
:101AAC00386108E0FFF728FC02463B69D31A022B89
:101ABC0001D903235AE10D4B5B6A03F00203002B9F
:101ACC00F0D0012000F09AFA1CE00A4B00221A60B8
:101ADC00FFF712FC38610FE0FFF70EFC02463B6982
:101AEC00D31A022B08D9032340E100BF0010024097
:101AFC0000004242800442429E4B5B6A03F00203A8
:101B0C00002BE9D17B681B6803F00403002B00F069
:101B1C00A6800023FB75974BDB6903F08053002BE9
:101B2C000DD1944BDB69934A43F08053D361914BB5
:101B3C00DB6903F08053BB60BB680123FB758E4BE4
:101B4C001B6803F48073002B18D18B4B1B688A4ADB
:101B5C0043F480731360FFF7CFFB386108E0FFF7A5
:101B6C00CBFB02463B69D31A642B01D90323FDE05E
:101B7C00814B1B6803F48073002BF0D07B68DB680F
:101B8C00012B06D17B4B1B6A7A4A43F0010313628B
:101B9C002DE07B68DB68002B0CD1764B1B6A754AF9
:101BAC0023F001031362734B1B6A724A23F0040384
:101BBC0013621CE07B68DB68052B0CD16D4B1B6A38
:101BCC006C4A43F0040313626A4B1B6A694A43F084
:101BDC00010313620BE0674B1B6A664A23F0010397
:101BEC001362644B1B6A634A23F0040313627B6821
:101BFC00DB68002B15D0FFF77FFB38610AE0FFF79D
:101C0C007BFB02463B69D31A41F28832934201D9DD
:101C1C000323ABE0574B1B6A03F00203002BEED0FF
:101C2C0014E0FFF769FB38610AE0FFF765FB024639
:101C3C003B69D31A41F28832934201D9032395E0D0
:101C4C004C4B1B6A03F00203002BEED1FB7D012BE6
:101C5C0005D1484BDB69474A23F08053D3617B683D
:101C6C00DB69002B00F08180424B5B6803F00C03B6
:101C7C00082B61D07B68DB69022B46D13F4B0022DD
:101C8C001A60FFF739FB386108E0FFF735FB0246B5
:101C9C003B69D31A022B01D9032367E0354B1B6830
:101CAC0003F00073002BF0D17B681B6AB3F5803F07
:101CBC0008D1304B5B6823F400327B689B682D495C
:101CCC0013434B602B4B5B6823F474127B68196ACB
:101CDC007B685B6A0B43274913434B60274B0122FC
:101CEC001A60FFF709FB386108E0FFF705FB0246B5
:101CFC003B69D31A022B01D9032337E01D4B1B6818
:101D0C0003F00073002BF0D02FE01C4B00221A6064
:101D1C00FFF7F2FA386108E0FFF7EEFA02463B698A
:101D2C00D31A022B01D9032320E0124B1B6803F0BA
:101D3C000073002BF0D118E07B68DB69012B01D11B
:101D4C00012313E00B4B5B68FB60FB6803F48032F0
:101D5C007B681B6A9A4206D1FB6803F470127B689D
:101D6C005B6A9A4201D0012300E000231846183721
:101D7C00BD4680BD00100240007000406000424231
:101D8C0080B584B000AF786039607B68002B01D1DE
:101D9C000123D0E06A4B1B6803F007033A689A42B0
:101DAC0010D9674B1B6823F0070265493B68134346
:101DBC000B60634B1B6803F007033A689A4201D02F
:101DCC000123B8E07B681B6803F00203002B20D0D2
:101DDC007B681B6803F00403002B05D0594B5B6830
:101DEC00584A43F4E06353607B681B6803F00803B4
:101DFC00002B05D0534B5B68524A43F4605353603D
:101E0C00504B5B6823F0F0027B689B684D49134391
:101E1C004B607B681B6803F00103002B40D07B6890
:101E2C005B68012B07D1474B1B6803F40033002B75
:101E3C0015D101237FE07B685B68022B07D1414BF6
:101E4C001B6803F00073002B09D1012373E03D4B99
:101E5C001B6803F00203002B01D101236BE0394B0B
:101E6C005B6823F003027B685B68364913434B6065
:101E7C00FFF742FAF8600AE0FFF73EFA0246FB6809
:101E8C00D31A41F28832934201D9032353E02D4BEC
:101E9C005B6803F00C027B685B689B009A42EBD199
:101EAC00274B1B6803F007033A689A4210D2244B65
:101EBC001B6823F0070222493B6813430B60204B3D
:101ECC001B6803F007033A689A4201D0012332E001
:101EDC007B681B6803F00403002B08D0194B5B686C
:101EEC0023F4E0627B68DB68164913434B607B6824
:101EFC001B6803F00803002B09D0124B5B6823F41A
:101F0C0060527B681B69DB000E4913434B6000F089
:101F1C0021F802460B4B5B681B0903F00F030A49BF
:101F2C00CB5C22FA03F3094A1360094B1B68184671
:101F3C00FFF7A0F9002318461037BD4680BD00BF3F
:101F4C000020024000100240842800081C000020E1
:101F5C002000002080B487B000AF0023FB6000237A
:101F6C00BB6000237B6100237B6000233B611E4B25
:101F7C005B68FB60FB6803F00C03042B02D0082B9E
:101F8C0003D027E0194B3B6127E0FB689B0C03F067
:101F9C000F03174AD35C7B60FB6803F48033002B80
:101FAC0010D0114B5B685B0C03F00103114AD35C3E
:101FBC00BB607B680D4A02FB03F2BB68B2FBF3F318
:101FCC007B6104E07B680C4A02FB03F37B617B6959
:101FDC003B6102E0054B3B6100BF3B6918461C3777
:101FEC00BD4680BC704700BF0010024000127A0052
:101FFC0094280008A428000800093D0080B485B08E
:10200C0000AF78600A4B1B680A4AA2FB03235B0AE9
:10201C007A6802FB03F3FB6000BFFB685A1EFA6090
:10202C00002BF9D100BF00BF1437BD4680BC7047F0
:10203C001C000020D34D621080B582B000AF7860D8
:10204C007B68002B01D1012341E07B6893F83D3084
:10205C00DBB2002B06D17B68002283F83C20786829
:10206C00FEF7B8FF7B68022283F83D207B681A6874
:10207C007B6804331946104600F06EFA7B68012227
:10208C0083F846207B68012283F83E207B6801227E
:10209C0083F83F207B68012283F840207B68012273
:1020AC0083F841207B68012283F842207B6801225F
:1020BC0083F843207B68012283F844207B6801224B
:1020CC0083F845207B68012283F83D2000231846C5
:1020DC000837BD4680BD000080B485B000AF786085
:1020EC007B6893F83D30DBB2012B01D0012335E046
:1020FC007B68022283F83D207B681B68DA687B686A
:10210C001B6842F00102DA607B681B68164A934236
:10211C0009D07B681B68B3F1804F04D07B681B68C7
:10212C00124A934211D17B681B689B6803F007032A
:10213C00FB60FB68062B10D07B681B681A687B68F9
:10214C001B6842F001021A6007E07B681B681A6882
:10215C007B681B6842F001021A6000231846143792
:10216C00BD4680BC704700BF002C014000040040FD
:10217C0080B582B000AF78607B681B681B6903F088
:10218C000203022B22D17B681B68DB6803F002037D
:10219C00022B1BD17B681B686FF002021A617B68F3
:1021AC0001221A777B681B689B6903F00303002BE1
:1021BC0003D0786800F0B4F905E0786800F0A7F96E
:1021CC00786800F0B6F97B6800221A777B681B6888
:1021DC001B6903F00403042B22D17B681B68DB68AA
:1021EC0003F00403042B1BD17B681B686FF0040203
:1021FC001A617B6802221A777B681B689B6903F45F
:10220C004073002B03D0786800F08AF905E07868F9
:10221C0000F07DF9786800F08CF97B6800221A7761
:10222C007B681B681B6903F00803082B22D17B68B1
:10223C001B68DB6803F00803082B1BD17B681B6849
:10224C006FF008021A617B6804221A777B681B689E
:10225C00DB6903F00303002B03D0786800F060F90E
:10226C0005E0786800F053F9786800F062F97B6853
:10227C0000221A777B681B681B6903F01003102B74
:10228C0022D17B681B68DB6803F01003102B1BD179
:10229C007B681B686FF010021A617B6808221A7742
:1022AC007B681B68DB6903F44073002B03D07868F0
:1022BC0000F036F905E0786800F029F9786800F04C
:1022CC0038F97B6800221A777B681B681B6903F05E
:1022DC000103012B0ED17B681B68DB6803F0010343
:1022EC00012B07D17B681B686FF001021A617868BB
:1022FC00FEF72EFE7B681B681B6903F08003802BA6
:10230C000ED17B681B68DB6803F08003802B07D140
:10231C007B681B686FF080021A61786800F06BFABA
:10232C007B681B681B6903F04003402B0ED17B6854
:10233C001B68DB6803F04003402B07D17B681B68EC
:10234C006FF040021A61786800F0FCF87B681B683B
:10235C001B6903F02003202B0ED17B681B68DB6804
:10236C0003F02003202B07D17B681B686FF0200241
:10237C001A61786800F036FA00BF0837BD4680BD98
:10238C0080B584B000AF786039600023FB737B6844
:10239C0093F83C30012B01D10223B4E07B6801227D
:1023AC0083F83C207B68022283F83D207B681B6805
:1023BC009B68BB60BB6823F07703BB60BB6823F4EE
:1023CC007F43BB607B681B68BA689A603B681B687C
:1023DC00B3F5005F3ED0B3F5005F00F28780B3F534
:1023EC00805F00F08680B3F5805F7FD8702B1AD0A9
:1023FC00702B7BD8602B50D0602B77D8502B3CD0D7
:10240C00502B73D8402B58D0402B6FD8302B64D026
:10241C00302B6BD8202B60D0202B67D8002B5CD0B6
:10242C00102B5AD062E07B6818683B6899683B684F
:10243C005A683B68DB6800F05EF97B681B689B6838
:10244C00BB60BB6843F07703BB607B681B68BA68F2
:10245C009A604FE07B6818683B6899683B685A68DB
:10246C003B68DB6800F047F97B681B689A687B68FF
:10247C001B6842F480429A603CE07B6818683B68B9
:10248C0059683B68DB681A4600F0BEF87B681B682D
:10249C005021184600F015F92CE07B6818683B6851
:1024AC0059683B68DB681A4600F0DCF87B681B68EF
:1024BC006021184600F005F91CE07B6818683B6841
:1024CC0059683B68DB681A4600F09EF87B681B680D
:1024DC004021184600F0F5F80CE07B681A683B6860
:1024EC001B681946104600F0ECF803E00123FB735F
:1024FC0000E000BF7B68012283F83D207B6800224E
:10250C0083F83C20FB7B18461037BD4680BD80B459
:10251C0083B000AF786000BF0C37BD4680BC7047FD
:10252C0080B483B000AF786000BF0C37BD4680BC70
:10253C00704780B483B000AF786000BF0C37BD46E5
:10254C0080BC704780B483B000AF786000BF0C379C
:10255C00BD4680BC7047000080B485B000AF786089
:10256C0039607B681B68FB607B68254A934207D007
:10257C007B68B3F1804F03D07B68224A934208D129
:10258C00FB6823F07003FB603B685B68FA681343DD
:10259C00FB607B681A4A934207D07B68B3F1804F8B
:1025AC0003D07B68174A934208D1FB6823F440732D
:1025BC00FB603B68DB68FA681343FB60FB6823F045
:1025CC0080023B685B691343FB607B68FA681A60A6
:1025DC003B689A687B68DA623B681A687B689A6227
:1025EC007B68074A934203D13B681A697B681A637C
:1025FC007B6801225A6100BF1437BD4680BC70470E
:10260C00002C01400004004080B487B000AFF8609B
:10261C00B9607A60FB681B6A7B61FB681B6A23F0FC
:10262C000102FB681A62FB689B693B613B6923F002
:10263C00F0033B617B681B013A6913433B617B6987
:10264C0023F00A037B617A69BB6813437B61FB68E7
:10265C003A699A61FB687A691A6200BF1C37BD46F9
:10266C0080BC704780B487B000AFF860B9607A6006
:10267C00FB681B6A7B61FB681B6A23F01002FB681A
:10268C001A62FB689B693B613B6923F470433B61B5
:10269C007B681B033A6913433B617B6923F0A003FE
:1026AC007B61BB681B017A6913437B61FB683A69E8
:1026BC009A61FB687A691A6200BF1C37BD4680BC00
:1026CC00704780B485B000AF786039607B689B68D8
:1026DC00FB60FB6823F07003FB603A68FB681343F4
:1026EC0043F00703FB607B68FA689A6000BF1437FD
:1026FC00BD4680BC704780B487B000AFF860B9604D
:10270C007A603B60FB689B687B617B6923F47F4349
:10271C007B613B681A027B681A43BB6813437A6976
:10272C0013437B61FB687A699A6000BF1C37BD4616
:10273C0080BC704780B485B000AF786039607B682E
:10274C0093F83C30012B01D1022341E07B6801223C
:10275C0083F83C207B68022283F83D207B681B6851
:10276C005B68FB607B681B689B68BB60FB6823F045
:10277C007003FB603B681B68FA681343FB607B6863
:10278C001B68FA685A607B681B68144A934209D02C
:10279C007B681B68B3F1804F04D07B681B68104AC0
:1027AC0093420CD1BB6823F08003BB603B685B6831
:1027BC00BA681343BB607B681B68BA689A607B6815
:1027CC00012283F83D207B68002283F83C20002303
:1027DC0018461437BD4680BC704700BF002C014022
:1027EC000004004080B483B000AF786000BF0C37A9
:1027FC00BD4680BC704780B483B000AF786000BF2A
:10280C000C37BD4680BC704770B500260C4D0D4C86
:10281C00641BA410A64209D100F022F800260A4D30
:10282C000A4C641BA410A64205D170BD55F8043B9C
:10283C0098470136EEE755F8043B98470136F2E726
:10284C00A8280008A8280008A8280008AC28000818
:10285C0003460244934200D1704703F8011BF9E789
:10286C00F8B500BFF8BC08BC9E467047F8B500BF71
:08287C00F8BC08BC9E46704741
:10288400000000000000000001020304060708091C
:1028940002030405060708090A0B0C0D0E0F10109D
:0428A400010200002D
:0428A80031010008F2
:0428AC000D01000812
:1028B000010000000200000003000000040000000E
:1028C0000A00000001020304050607080024F400C2
:0828D0001000000001000000EF
:0400000508001209D4
:00000001FF
