:020000040800F2
:1000000000280020C5120008891000088F10000881
:10001000951000089B100008A110000800000000C7
:10002000000000000000000000000000A710000811
:10003000B310000800000000BF100008CB1000083B
:100040000D1300080D1300080D1300080D13000810
:100050000D1300080D1300080D1300080D13000800
:100060000D1300080D1300080D1300080D130008F0
:100070000D1300080D1300080D1300080D130008E0
:100080000D1300080D1300080D1300080D130008D0
:100090000D1300080D1300080D1300080D130008C0
:1000A0000D1300080D1300080D1300080D130008B0
:1000B000D91000080D130008000000000D130008FF
:1000C0000D13000800000000000000000D130008E0
:1000D000000000000D1300080D13000800000000D0
:1000E0000D1300080D1300080D1300080000000098
:1000F0000000000000000000000000000000000000
:0C01000000000000000000005FF808F1A3
:10010C0010B5054C237833B9044B13B10448AFF345
:10011C0000800123237010BD280000200000000087
:10012C002829000808B5034B1BB103490348AFF35A
:10013C00008008BD000000002C00002028290008C9
:10014C0080B582B000AF78607B68092B00F28081AB
:10015C0001A252F823F000BF8D010008D501000860
:10016C001D02000865020008AD020008F502000837
:10017C003D03000885030008CD03000815040008A2
:10018C0000220121B54801F0A7FB00220221B3484F
:10019C0001F0A2FB00220421B04801F09DFB0022DB
:1001AC000821AE4801F098FB00221021AB4801F069
:1001BC0093FB00222021A94801F08EFB0122402153
:1001CC00A64801F089FB44E101220121A34801F07A
:1001DC0083FB00220221A14801F07EFB00220421B6
:1001EC009E4801F079FB012208219C4801F074FB28
:1001FC0001221021994801F06FFB01222021974820
:10020C0001F06AFB01224021944801F065FB20E1DA
:10021C0000220121914801F05FFB002202218F484E
:10022C0001F05AFB012204218C4801F055FB0022FD
:10023C0008218A4801F050FB00221021874801F068
:10024C004BFB01222021854801F046FB0022402176
:10025C00824801F041FBFCE0002201217F4801F0C3
:10026C003BFB002202217D4801F036FB00220421D9
:10027C007A4801F031FB00220821784801F02CFB70
:10028C0001221021754801F027FB0122202173481F
:10029C0001F022FB00224021704801F01DFBD8E048
:1002AC00012201216D4801F017FB002202216B484D
:1002BC0001F012FB00220421684801F00DFB012221
:1002CC000821664801F008FB01221021634801F067
:1002DC0003FB00222021614801F0FEFA002240219C
:1002EC005E4801F0F9FAB4E0002201215B4801F00C
:1002FC00F3FA01220221594801F0EEFA00220421FE
:10030C00564801F0E9FA00220821544801F0E4FAB9
:10031C0001221021514801F0DFFA002220214F4820
:10032C0001F0DAFA002240214C4801F0D5FA90E0B5
:10033C0000220121494801F0CFFA0122022147484D
:10034C0001F0CAFA00220421444801F0C5FA002247
:10035C000821424801F0C0FA002210213F4801F068
:10036C00BBFA002220213D4801F0B6FA00224021C0
:10037C003A4801F0B1FA6CE000220121374801F053
:10038C00ABFA00220221354801F0A6FA0022042122
:10039C00324801F0A1FA01220821304801F09CFA00
:1003AC00012210212D4801F097FA012220212B481F
:1003BC0001F092FA01224021284801F08DFA48E020
:1003CC0000220121254801F087FA0022022123484E
:1003DC0001F082FA00220421204801F07DFA00226B
:1003EC0008211E4801F078FA002210211B4801F068
:1003FC0073FA00222021194801F06EFA00224021E4
:10040C00164801F069FA24E000220121134801F09A
:10041C0063FA00220221114801F05EFA0022042145
:10042C000E4801F059FA002208210C4801F054FA48
:10043C0001221021094801F04FFA0022202107481F
:10044C0001F04AFA00224021044801F045FA00E08C
:10045C0000BF00BF0837BD4680BD00BF000C014087
:10046C0080B582B000AF0346FB71FB79002B15D130
:10047C0000224021314801F02FFA012280212F481F
:10048C0001F02AFA01224FF480712C4801F024FA71
:10049C0001224FF40071294801F01EFAFB79012B5F
:1004AC0015D101224021254801F016FA00228021A5
:1004BC00224801F011FA01224FF480711F4801F01B
:1004CC000BFA01224FF400711C4801F005FAFB797C
:1004DC00022B15D101224021184801F0FDF901220F
:1004EC008021164801F0F8F900224FF4807113486E
:1004FC0001F0F2F901224FF40071104801F0ECF90F
:10050C00FB79032B15D1012240210C4801F0E4F9B1
:10051C0001228021094801F0DFF901224FF480719A
:10052C00064801F0D9F900224FF40071034801F09C
:10053C00D3F900BF0837BD4680BD00BF000801409D
:10054C0080B584B000AF78607B685A4203F0030337
:10055C0002F0030258BF5342FB60FB68032B3FD8E9
:10056C0001A252F823F000BF850500089F05000882
:10057C00B9050008D30500080020FFF771FF204AD9
:10058C00FB6852F823301846FFF7DAFD0123FB60B5
:10059C0031E00120FFF764FF194AFB6852F8233061
:1005AC001846FFF7CDFD0223FB6024E00220FFF785
:1005BC0057FF134AFB6852F823301846FFF7C0FD6B
:1005CC000323FB6017E00320FFF74AFF0C4AFB688C
:1005DC0052F823301846FFF7B3FD0423FB600AE002
:1005EC000020FFF73DFF064A7B6852F8233018467F
:1005FC00FFF7A6FD00BF00BF1037BD4680BD00BF92
:10060C000000002080B483B000AF786039607B6854
:10061C00184A82FB03129210DB17D31A164A136086
:10062C007968144B83FB01239A10CB17D21A13460B
:10063C009B0013445B00CA1A0F4B5A603B680D4A6F
:10064C0082FB03129210DB17D31A0B4A93603968A2
:10065C00084B83FB01239A10CB17D21A13469B002D
:10066C0013445B00CA1A044BDA6000BF0C37BD465A
:10067C0080BC7047676666660000002080B582B05B
:10068C0000AF0346FB71FB79C02B3ED0C02B00F3AF
:10069C00CF80802B6AD0802B00F3CA80002B03D034
:1006AC00332B00F09480C3E001224FF480717B481F
:1006BC0001F012F901224FF40071784801F00CF9A5
:1006CC0001224FF48061754801F006F901224FF4C4
:1006DC000061724801F000F901224FF480516F481B
:1006EC0001F0FAF801224FF400516C4801F0F4F8D3
:1006FC0001224FF48041694801F0EEF801224FF4D9
:10070C000041664801F0E8F8C3E001224FF4807123
:10071C00624801F0E1F801224FF400715F4801F0EA
:10072C00DBF800224FF480615C4801F0D5F8002220
:10073C004FF40061594801F0CFF800224FF480517A
:10074C00564801F0C9F800224FF40051534801F00B
:10075C00C3F800224FF48041504801F0BDF800224C
:10076C004FF400414D4801F0B7F892E001224FF4EC
:10077C0080714A4801F0B0F800224FF400714748EC
:10078C0001F0AAF800224FF48061444801F0A4F86B
:10079C0000224FF40061414801F09EF800224FF412
:1007AC0080513E4801F098F800224FF400513B482C
:1007BC0001F092F800224FF48041384801F08CF897
:1007CC0000224FF40041354801F086F861E0002228
:1007DC004FF48071314801F07FF800224FF4007122
:1007EC002E4801F079F801224FF480612B4801F07A
:1007FC0073F801224FF40061284801F06DF80022D3
:10080C004FF48051254801F067F800224FF4005155
:10081C00224801F061F801224FF480411F4801F099
:10082C005BF801224FF400411C4801F055F830E010
:10083C0001224FF48071194801F04EF801224FF457
:10084C000071164801F048F801224FF480611348FA
:10085C0001F042F801224FF40061104801F03CF81D
:10086C0001224FF480510D4801F036F801224FF46B
:10087C0000510A4801F030F801224FF4804107483A
:10088C0001F02AF801224FF40041044801F024F849
:10089C0000BF00BF0837BD4680BD00BF000C014043
:1008AC0080B582B000AF78607B68072B00F28E8138
:1008BC0001A252F823F000BFE50800084309000824
:1008CC00A1090008FF0900085D0A0008BB0A00081E
:1008DC00190B0008770B000800220421BA4800F01D
:1008EC00FBFF01220821B84800F0F6FF01224FF46B
:1008FC008061B54800F0F0FF01224FF40061B2486E
:10090C0000F0EAFF01224FF48051AF4800F0E4FF01
:10091C0001224FF40051AC4800F0DEFF01224FF4ED
:10092C008041A94800F0D8FF01224FF40041A648AD
:10093C0000F0D2FF79E101220421A34800F0CCFFA2
:10094C0000220821A04800F0C7FF01224FF480616B
:10095C009D4800F0C1FF01224FF400619A4800F05D
:10096C00BBFF01224FF48051974800F0B5FF0122E4
:10097C004FF40051944800F0AFFF01224FF4804136
:10098C00914800F0A9FF01224FF400418E4800F07D
:10099C00A3FF4AE1012204218B4800F09DFF0122B4
:1009AC000821894800F098FF00224FF480618648A6
:1009BC0000F092FF01224FF40061834800F08CFF9D
:1009CC0001224FF48051804800F086FF01224FF441
:1009DC0000517D4800F080FF01224FF480417A489D
:1009EC0000F07AFF01224FF40041774800F074FFC9
:1009FC001BE101220421744800F06EFF0122082142
:100A0C00714800F069FF01224FF480616E4800F0DC
:100A1C0063FF00224FF400616B4800F05DFF012280
:100A2C004FF48051684800F057FF01224FF40051F9
:100A3C00654800F051FF01224FF48041624800F0FC
:100A4C004BFF01224FF400415F4800F045FFECE002
:100A5C00012204215C4800F03FFF012208215A4882
:100A6C0000F03AFF01224FF48061574800F034FF48
:100A7C0001224FF40061544800F02EFF00224FF485
:100A8C008051514800F028FF01224FF400514E488C
:100A9C0000F022FF01224FF480414B4800F01CFF74
:100AAC0001224FF40041484800F016FFBDE001223E
:100ABC000421454800F010FF01220821424800F0B3
:100ACC000BFF01224FF480613F4800F005FF01222B
:100ADC004FF400613C4800F0FFFE01224FF48051BE
:100AEC00394800F0F9FE00224FF40051364800F06E
:100AFC00F3FE01224FF48041334800F0EDFE012259
:100B0C004FF40041304800F0E7FE8EE00122042152
:100B1C002D4800F0E1FE012208212B4800F0DCFEFC
:100B2C0001224FF48061284800F0D6FE01224FF4D8
:100B3C000061254800F0D0FE01224FF4805122487C
:100B4C0000F0CAFE01224FF400511F4800F0C4FE11
:100B5C0000224FF480411C4800F0BEFE01224FF4ED
:100B6C000041194800F0B8FE5FE00122042116484C
:100B7C0000F0B2FE01220821134800F0ADFE012264
:100B8C004FF48061104800F0A7FE01224FF4006181
:100B9C000D4800F0A1FE01224FF480510A4800F0EC
:100BAC009BFE01224FF40051074800F095FE0122F4
:100BBC004FF48041044800F08FFE00224FF40041B6
:100BCC00014800F089FE30E00008014001220421B8
:100BDC001B4800F081FE01220821194800F07CFE20
:100BEC0001224FF48061164800F076FE01224FF48A
:100BFC000061134800F070FE01224FF48051104840
:100C0C0000F06AFE01224FF400510D4800F064FE22
:100C1C0001224FF480410A4800F05EFE01224FF49D
:100C2C000041074800F058FE00BF064A7B68134499
:100C3C001B781846FFF722FD00BF0837BD4680BD64
:100C4C00000801401400002080B483B000AF0E4BAC
:100C5C001B78FB7000237B600BE07B6801330A4A36
:100C6C00D15C094A7B6813440A461A707B680133CD
:100C7C007B607B68062BF0DD034AFB78D37100BFE9
:100C8C000C37BD4680BC70471400002080B584B082
:100C9C0000AF00F037FB00F0ADF800F033F900F0D6
:100CAC00E5F84B4801F076FA1223FB600723BB6092
:100CBC0027237B6000233B60642000F017FA64203C
:100CCC0000F028FA642000F03FFA642000F056FA95
:100CDC00642000F06DFA3F4B00221A703D4BC0228D
:100CEC005A703C4B80229A703A4B3322DA70394B53
:100CFC0033221A71374B80225A71364BC0229A71AB
:100D0C00344B0022DA71344B1B68012B21D120218A
:100D1C00324800F0F9FD4FF47A7000F0E7F97B6887
:100D2C0001337B607B683B2B04DD00237B60BB685D
:100D3C000133BB60BB683B2B04DD0023BB60FB684D
:100D4C000133FB60FB68172B01DD0023FB60FFF711
:100D5C0059FC234B1B68012B0DD13B685A1C3A6084
:100D6C001846FFF7EDFB3B68032B01DD00233B60CE
:100D7C00FA2000F0CFF91B4B1B68012B07D1102177
:100D8C00164800F0C1FD4FF4FA7000F0DDF9164B77
:100D9C001B68012B11D1154B1B685A1C13490A6097
:100DAC001846FFF77DFD114B1B68072B02DD0F4B1F
:100DBC0000221A60322000F0E1F90D4B1B68012B68
:100DCC00A1D1FFF741FF4FF4C87000F0F1F99AE799
:100DDC007000002014000020480000200008014092
:100DEC005000002058000020600000206C00002003
:100DFC006800002080B590B000AF07F118032822DE
:100E0C000021184601F082FD3B1D00221A605A6039
:100E1C009A60DA601A610223BB610123BB62102362
:100E2C00FB6200237B6307F11803184600F086FD74
:100E3C000346002B01D000F0C5F80F237B60002384
:100E4C00BB600023FB6000233B6100237B613B1DE7
:100E5C000021184600F0F2FF0346002B01D000F0F1
:100E6C00B1F800BF4037BD4680BD000080B586B0EC
:100E7C0000AF07F1080300221A605A609A60DA602A
:100E8C003B4600221A605A601D4B4FF080421A609C
:100E9C001B4B41F63F725A60194B00229A60184B5B
:100EAC000922DA60164B00221A61154B00229A6156
:100EBC00134801F01FF90346002B01D000F082F813
:100ECC004FF48053BB6007F1080319460C4801F03E
:100EDC00B5FA0346002B01D000F074F800233B60F8
:100EEC0000237B603B461946054801F081FC034614
:100EFC00002B01D000F066F800BF1837BD4680BD4E
:100F0C007000002080B586B000AF07F10803002206
:100F1C001A605A609A60DA60224B9B69214A43F04E
:100F2C00040393611F4B9B6903F004037B607B6894
:100F3C001C4B9B691B4A43F008039361194B9B693B
:100F4C0003F008033B603B6800224FF6FC71164827
:100F5C0000F0C2FC00224FF67F71144800F0BCFC7C
:100F6C004FF6FC73BB600123FB6000233B61022343
:100F7C007B6107F1080319460B4800F033FB4FF671
:100F8C007F73BB600123FB6000233B6102237B6109
:100F9C0007F108031946054800F024FB00BF183779
:100FAC00BD4680BD0010024000080140000C01400D
:100FBC0080B582B000AF786000F014F900BF08373C
:100FCC00BD4680BD80B400AF72B600BFFEE7000026
:100FDC0080B485B000AF154B9B69144A43F00103F4
:100FEC009361124B9B6903F00103BB60BB680F4B11
:100FFC00DB690E4A43F08053D3610C4BDB6903F081
:10100C0080537B607B680A4B5B68FB60FB6823F05A
:10101C00E063FB60FB6843F08063FB60044AFB68A1
:10102C00536000BF1437BD4680BC704700100240AF
:10103C000000014080B584B000AF78607B681B680D
:10104C00B3F1804F13D10C4BDB690B4A43F0010316
:10105C00D361094BDB6903F00103FB60FB680022E1
:10106C0000211C2000F087FA1C2000F0A0FA00BF21
:10107C001037BD4680BD00BF0010024080B400AFE9
:10108C00FEE780B400AFFEE780B400AFFEE780B4AB
:10109C0000AFFEE780B400AFFEE780B400AF00BF46
:1010AC00BD4680BC704780B400AF00BFBD4680BC5D
:1010BC00704780B400AF00BFBD4680BC704780B5A0
:1010CC0000AF00F065F900BF80BD000080B500AF37
:1010DC00024801F0ABF800BF80BD00BF70000020DB
:1010EC0080B400AF00BFBD4680BC704780B483B0F5
:1010FC0000AF7860054B1B687A6892FBF3F3044AE7
:10110C00136000BF0C37BD4680BC70471000002038
:10111C004400002080B483B000AF7860074B1B689C
:10112C007A6892FBF3F3064A1360064B00221A60AE
:10113C0000BF0C37BD4680BC704700BF10000020BC
:10114C004C0000205000002080B483B000AF7860C9
:10115C00074B1B687A6892FBF3F3064A1360064B45
:10116C0000221A6000BF0C37BD4680BC704700BF20
:10117C0010000020540000205800002080B483B0E0
:10118C0000AF7860074B1B687A6892FBF3F3064A52
:10119C001360064B00221A6000BF0C37BD4680BCA2
:1011AC00704700BF100000205C0000206000002091
:1011BC0080B483B000AF7860074B1B687A6892FBF1
:1011CC00F3F3064A1360064B00221A6000BF0C377B
:1011DC00BD4680BC704700BF10000020640000209A
:1011EC006800002080B400AF294B1B68002B0BDD7E
:1011FC00274B1B68013B264A1360254B1B68002BB1
:10120C0002D1244B01221A60234B1B68002B0BDDEF
:10121C00214B1B68013B204A13601F4B1B68002BA2
:10122C0002D11E4B01221A601D4B1B68002B0BDDDB
:10123C001B4B1B68013B1A4A1360194B1B68002B94
:10124C0002D1184B01221A60174B1B68002B0BDDC7
:10125C00154B1B68013B144A1360134B1B68002B86
:10126C0002D1124B01221A60114B1B68002B0BDDB3
:10127C000F4B1B68013B0E4A13600D4B1B68002B78
:10128C0002D10C4B01221A6000BFBD4680BC7047D6
:10129C0044000020480000204C000020500000209A
:1012AC0054000020580000205C000020600000204A
:1012BC006400002068000020FFF712FF0B480C4967
:1012CC000C4A002302E0D458C4500433C4188C4296
:1012DC00F9D3094A094C002301E013600432A242FD
:1012EC00FBD301F0EFFAFFF7D1FC704700000020B0
:1012FC00280000206C29000828000020BC000020D9
:10130C00FEE7000080B500AF084B1B68074A43F0AE
:10131C0010031360032000F023F90F2000F008F8ED
:10132C00FFF756FE0023184680BD00BF0020024088
:10133C0080B582B000AF7860124B1A68124B1B78E4
:10134C0019464FF47A73B3FBF1F3B2FBF3F318467F
:10135C0000F03BF90346002B01D001230EE07B6823
:10136C000F2B0AD8002279684FF0FF3000F003F9F8
:10137C00064A7B681360002300E0012318460837F7
:10138C00BD4680BD1C000020240000202000002051
:10139C0080B400AF054B1B781A46054B1B681344F1
:1013AC00034A136000BFBD4680BC70472400002078
:1013BC00B800002080B400AF024B1B681846BD4635
:1013CC0080BC7047B800002080B485B000AF786056
:1013DC007B6803F00703FB600C4BDB68BB60BA68EF
:1013EC004FF6FF031340BB60FB681A02BB68134344
:1013FC0043F0BF6343F40033BB60044ABB68D36063
:10140C0000BF1437BD4680BC704700BF00ED00E044
:10141C0080B400AF044BDB681B0A03F007031846CB
:10142C00BD4680BC704700BF00ED00E080B483B0C7
:10143C0000AF0346FB7197F90730002B0BDBFB79F0
:10144C0003F01F02064997F907305B09012000FAE7
:10145C0002F241F8232000BF0C37BD4680BC704718
:10146C0000E100E080B483B000AF03463960FB714B
:10147C0097F90730002B0ADB3B68DAB20C4997F975
:10148C0007301201D2B20B4483F800230AE03B6808
:10149C00DAB20849FB7903F00F03043B1201D2B214
:1014AC000B441A7600BF0C37BD4680BC704700BF9A
:1014BC0000E100E000ED00E080B489B000AFF8601E
:1014CC00B9607A60FB6803F00703FB61FB69C3F149
:1014DC000703042B28BF0423BB61FB690433062BD1
:1014EC0002D9FB69033B00E000237B614FF0FF3224
:1014FC00BB6902FA03F3DA43BB681A407B699A4072
:10150C004FF0FF317B6901FA03F3D9437B680B4041
:10151C00134318462437BD4680BC704780B582B053
:10152C0000AF78607B68013BB3F1807F01D301236E
:10153C000FE00A4A7B68013B53600F214FF0FF30EC
:10154C00FFF790FF054B00229A60044B07221A60AC
:10155C00002318460837BD4680BD00BF10E000E0F0
:10156C0080B582B000AF78607868FFF72DFF00BFC0
:10157C000837BD4680BD80B586B000AF0346B96064
:10158C007A60FB7300237B61FFF742FF78617A6816
:10159C00B9687869FFF790FF024697F90F3011464A
:1015AC001846FFF75FFF00BF1837BD4680BD80B5FA
:1015BC0082B000AF0346FB7197F907301846FFF76E
:1015CC0035FF00BF0837BD4680BD80B582B000AF87
:1015DC0078607868FFF7A2FF034618460837BD46C7
:1015EC0080BD000080B48BB000AF78603960002300
:1015FC007B6200233B6248E101227B6A02FA03F31F
:10160C00FB613B681B68FA691340BB61BA69FB69F3
:10161C009A4240F037813B685B68A34A93425ED0A4
:10162C00A14A934275D8A14A934258D09F4A9342FB
:10163C006FD89F4A934252D09D4A934269D89D4A93
:10164C0093424CD09B4A934263D89B4A934246D0D8
:10165C00994A93425DD8122B2AD8122B59D801A241
:10166C0052F823F0EB160008C5160008D716000830
:10167C00191700081F1700081F1700081F1700086C
:10168C001F1700081F1700081F1700081F17000856
:10169C001F1700081F1700081F1700081F17000846
:1016AC001F1700081F170008CD160008E1160008C8
:1016BC00824A934213D02CE03B68DB683B6229E002
:1016CC003B68DB6804333B6224E03B68DB6808332F
:1016DC003B621FE03B68DB680C333B621AE03B6803
:1016EC009B68002B02D104233B6213E03B689B6890
:1016FC00012B05D108233B627B68FA691A6109E06A
:10170C0008233B627B68FA695A6103E000233B6261
:10171C0000E000BFBB69FF2B01D87B6801E07B6850
:10172C0004337B61BB69FF2B02D87B6A9B0002E010
:10173C007B6A083B9B003B617B691A680F213B6904
:10174C0001FA03F3DB431A40396A3B6901FA03F3EC
:10175C001A437B691A603B685B6803F08053002B6B
:10176C0000F09080564B9B69554A43F001039361FE
:10177C00534B9B6903F00103BB60BB68514A7B6A06
:10178C009B08023352F82330FB607B6A03F003039F
:10179C009B000F2202FA03F3DB43FA681340FB6051
:1017AC007B68494A93420DD07B68484A934207D0E4
:1017BC007B68474A934201D1022304E0032302E0F1
:1017CC00012300E000237A6A02F0030292009340A6
:1017DC00FA681343FB603B497B6A9B080233FA6847
:1017EC0041F823203B685B6803F48013002B06D080
:1017FC00384B9A683749BB6913438B6006E0354B0D
:10180C009A68BB69DB43334913408B603B685B6868
:10181C0003F40013002B06D02E4BDA682D49BB695C
:10182C001343CB6006E02B4BDA68BB69DB432949D9
:10183C001340CB603B685B6803F40033002B06D08D
:10184C00244B5A682349BB6913434B6006E0214B78
:10185C005A68BB69DB431F4913404B603B685B68AC
:10186C0003F48033002B06D01A4B1A681949BB6954
:10187C0013430B6006E0174B1A68BB69DB43154931
:10188C0013400B607B6A01337B623B681A687B6A8E
:10189C0022FA03F3002B7FF4AFAE00BF00BF2C374E
:1018AC00BD4680BC704700BF0000321000003110F4
:1018BC000000221000002110000012100000111076
:1018CC00001002400000014000080140000C0140E3
:1018DC00001001400004014080B483B000AF786078
:1018EC000B467B8013467B707B78002B03D07A8869
:1018FC007B681A6103E07B881A047B681A6100BF5D
:10190C000C37BD4680BC704780B485B000AF7860A2
:10191C000B467B807B68DB68FB607A88FB68134036
:10192C001A04FB68D9437B880B401A437B681A6105
:10193C0000BF1437BD4680BC7047000080B586B030
:10194C0000AF78607B68002B01D101236CE27B68CF
:10195C001B6803F00103002B00F08780924B5B683F
:10196C0003F00C03042B0CD08F4B5B6803F00C03BF
:10197C00082B12D18C4B5B6803F48033B3F5803F9A
:10198C000BD1894B1B6803F40033002B6CD07B68A4
:10199C005B68002B68D1012346E27B685B68B3F57A
:1019AC00803F06D1804B1B687F4A43F48033136021
:1019BC002EE07B685B68002B0CD17B4B1B687A4A52
:1019CC0023F480331360784B1B68774A23F480230D
:1019DC0013601DE07B685B68B3F5A02F0CD1724BD4
:1019EC001B68714A43F4802313606F4B1B686E4A6B
:1019FC0043F4803313600BE06B4B1B686A4A23F48F
:101A0C0080331360684B1B68674A23F48023136090
:101A1C007B685B68002B13D0FFF7CCFC386108E0C7
:101A2C00FFF7C8FC02463B69D31A642B01D9032388
:101A3C00FAE15D4B1B6803F40033002BF0D014E08B
:101A4C00FFF7B8FC386108E0FFF7B4FC02463B69CD
:101A5C00D31A642B01D90323E6E1534B1B6803F41F
:101A6C000033002BF0D100E000BF7B681B6803F053
:101A7C000203002B63D04C4B5B6803F00C03002B70
:101A8C000BD0494B5B6803F00C03082B1CD1464B65
:101A9C005B6803F48033002B16D1434B1B6803F0B7
:101AAC000203002B05D07B681B69012B01D001239D
:101ABC00BAE13D4B1B6823F0F8027B685B69DB00E5
:101ACC00394913430B603AE07B681B69002B20D02B
:101ADC00364B01221A60FFF76DFC386108E0FFF706
:101AEC0069FC02463B69D31A022B01D903239BE103
:101AFC002D4B1B6803F00203002BF0D02A4B1B6804
:101B0C0023F0F8027B685B69DB00274913430B6009
:101B1C0015E0264B00221A60FFF74CFC386108E0F8
:101B2C00FFF748FC02463B69D31A022B01D9032369
:101B3C007AE11D4B1B6803F00203002BF0D17B688C
:101B4C001B6803F00803002B3AD07B689B69002BC1
:101B5C0019D0174B01221A60FFF72CFC386108E0F2
:101B6C00FFF728FC02463B69D31A022B01D9032349
:101B7C005AE10D4B5B6A03F00203002BF0D00120FD
:101B8C0000F09AFA1CE00A4B00221A60FFF712FCD4
:101B9C0038610FE0FFF70EFC02463B69D31A022BAB
:101BAC0008D9032340E100BF00100240000042426C
:101BBC00800442429E4B5B6A03F00203002BE9D186
:101BCC007B681B6803F00403002B00F0A680002345
:101BDC00FB75974BDB6903F08053002B0DD1944BB5
:101BEC00DB69934A43F08053D361914BDB6903F07B
:101BFC008053BB60BB680123FB758E4B1B6803F4E1
:101C0C008073002B18D18B4B1B688A4A43F480736A
:101C1C001360FFF7CFFB386108E0FFF7CBFB024600
:101C2C003B69D31A642B01D90323FDE0814B1B685C
:101C3C0003F48073002BF0D07B68DB68012B06D19A
:101C4C007B4B1B6A7A4A43F0010313622DE07B68DD
:101C5C00DB68002B0CD1764B1B6A754A23F0010311
:101C6C001362734B1B6A724A23F0040313621CE069
:101C7C007B68DB68052B0CD16D4B1B6A6C4A43F0FF
:101C8C00040313626A4B1B6A694A43F00103136233
:101C9C000BE0674B1B6A664A23F001031362644B2B
:101CAC001B6A634A23F0040313627B68DB68002B16
:101CBC0015D0FFF77FFB38610AE0FFF77BFB02468C
:101CCC003B69D31A41F28832934201D90323ABE02A
:101CDC00574B1B6A03F00203002BEED014E0FFF706
:101CEC0069FB38610AE0FFF765FB02463B69D31AD2
:101CFC0041F28832934201D9032395E04C4B1B6A85
:101D0C0003F00203002BEED1FB7D012B05D1484BD8
:101D1C00DB69474A23F08053D3617B68DB69002B76
:101D2C0000F08180424B5B6803F00C03082B61D000
:101D3C007B68DB69022B46D13F4B00221A60FFF710
:101D4C0039FB386108E0FFF735FB02463B69D31AD3
:101D5C00022B01D9032367E0354B1B6803F000739A
:101D6C00002BF0D17B681B6AB3F5803F08D1304B58
:101D7C005B6823F400327B689B682D4913434B60EE
:101D8C002B4B5B6823F474127B68196A7B685B6A63
:101D9C000B43274913434B60274B01221A60FFF773
:101DAC0009FB386108E0FFF705FB02463B69D31AD3
:101DBC00022B01D9032337E01D4B1B6803F0007382
:101DCC00002BF0D02FE01C4B00221A60FFF7F2FA28
:101DDC00386108E0FFF7EEFA02463B69D31A022B92
:101DEC0001D9032320E0124B1B6803F00073002B76
:101DFC00F0D118E07B68DB69012B01D1012313E0E2
:101E0C000B4B5B68FB60FB6803F480327B681B6ADE
:101E1C009A4206D1FB6803F470127B685B6A9A42A3
:101E2C0001D0012300E0002318461837BD4680BDC1
:101E3C0000100240007000406000424280B584B047
:101E4C0000AF786039607B68002B01D10123D0E0B2
:101E5C006A4B1B6803F007033A689A4210D9674B28
:101E6C001B6823F0070265493B6813430B60634B07
:101E7C001B6803F007033A689A4201D00123B8E0CB
:101E8C007B681B6803F00203002B20D07B681B6867
:101E9C0003F00403002B05D0594B5B68584A43F4FC
:101EAC00E06353607B681B6803F00803002B05D0CC
:101EBC00534B5B68524A43F460535360504B5B681E
:101ECC0023F0F0027B689B684D4913434B607B68A1
:101EDC001B6803F00103002B40D07B685B68012B6F
:101EEC0007D1474B1B6803F40033002B15D101239A
:101EFC007FE07B685B68022B07D1414B1B6803F0CA
:101F0C000073002B09D1012373E03D4B1B6803F0D8
:101F1C000203002B01D101236BE0394B5B6823F0EA
:101F2C0003027B685B68364913434B60FFF742FA48
:101F3C00F8600AE0FFF73EFA0246FB68D31A41F25A
:101F4C008832934201D9032353E02D4B5B6803F095
:101F5C000C027B685B689B009A42EBD1274B1B6899
:101F6C0003F007033A689A4210D2244B1B6823F003
:101F7C00070222493B6813430B60204B1B6803F09C
:101F8C0007033A689A4201D0012332E07B681B6850
:101F9C0003F00403002B08D0194B5B6823F4E062B8
:101FAC007B68DB68164913434B607B681B6803F046
:101FBC000803002B09D0124B5B6823F460527B683A
:101FCC001B69DB000E4913434B6000F021F80246FD
:101FDC000B4B5B681B0903F00F030A49CB5C22FA1D
:101FEC0003F3094A1360094B1B681846FFF7A0F965
:101FFC00002318461037BD4680BD00BF00200240AC
:10200C0000100240402900081C0000202000002085
:10201C0080B487B000AF0023FB600023BB600023BB
:10202C007B6100237B6000233B611E4B5B68FB6084
:10203C00FB6803F00C03042B02D0082B03D027E021
:10204C00194B3B6127E0FB689B0C03F00F03174A0D
:10205C00D35C7B60FB6803F48033002B10D0114BF6
:10206C005B685B0C03F00103114AD35CBB607B68BB
:10207C000D4A02FB03F2BB68B2FBF3F37B6104E095
:10208C007B680C4A02FB03F37B617B693B6102E0DA
:10209C00054B3B6100BF3B6918461C37BD4680BCF5
:1020AC00704700BF0010024000127A00502900084F
:1020BC006029000800093D0080B485B000AF78604D
:1020CC000A4B1B680A4AA2FB03235B0A7A6802FBD1
:1020DC0003F3FB6000BFFB685A1EFA60002BF9D1BA
:1020EC0000BF00BF1437BD4680BC70471C000020E9
:1020FC00D34D621080B582B000AF78607B68002B46
:10210C0001D1012341E07B6893F83D30DBB2002B19
:10211C0006D17B68002283F83C207868FEF78AFFA2
:10212C007B68022283F83D207B681A687B68043345
:10213C001946104600F06EFA7B68012283F846209F
:10214C007B68012283F83E207B68012283F83F20C4
:10215C007B68012283F840207B68012283F84120B0
:10216C007B68012283F842207B68012283F843209C
:10217C007B68012283F844207B68012283F8452088
:10218C007B68012283F83D20002318460837BD46A2
:10219C0080BD000080B485B000AF78607B6893F898
:1021AC003D30DBB2012B01D0012335E07B680222EC
:1021BC0083F83D207B681B68DA687B681B6842F0FB
:1021CC000102DA607B681B68164A934209D07B686F
:1021DC001B68B3F1804F04D07B681B68124A934292
:1021EC0011D17B681B689B6803F00703FB60FB68DD
:1021FC00062B10D07B681B681A687B681B6842F042
:10220C0001021A6007E07B681B681A687B681B6810
:10221C0042F001021A60002318461437BD4680BCF8
:10222C00704700BF002C01400004004080B582B014
:10223C0000AF78607B681B681B6903F00203022BFC
:10224C0022D17B681B68DB6803F00203022B1BD1D5
:10225C007B681B686FF002021A617B6801221A7797
:10226C007B681B689B6903F00303002B03D0786821
:10227C0000F0B4F905E0786800F0A7F9786800F090
:10228C00B6F97B6800221A777B681B681B6903F020
:10229C000403042B22D17B681B68DB6803F0040366
:1022AC00042B1BD17B681B686FF004021A617B68DE
:1022BC0002221A777B681B689B6903F44073002B1E
:1022CC0003D0786800F08AF905E0786800F07DF9B1
:1022DC00786800F08CF97B6800221A777B681B68A1
:1022EC001B6903F00803082B22D17B681B68DB6891
:1022FC0003F00803082B1BD17B681B686FF00802E6
:10230C001A617B6804221A777B681B68DB6903F00F
:10231C000303002B03D0786800F060F905E07868BF
:10232C0000F053F9786800F062F97B6800221A77A4
:10233C007B681B681B6903F01003102B22D17B6890
:10234C001B68DB6803F01003102B1BD17B681B6828
:10235C006FF010021A617B6808221A777B681B6881
:10236C00DB6903F44073002B03D0786800F036F976
:10237C0005E0786800F029F9786800F038F97B6896
:10238C0000221A777B681B681B6903F00103012B81
:10239C000ED17B681B68DB6803F00103012B07D1AE
:1023AC007B681B686FF001021A617868FEF700FE0B
:1023BC007B681B681B6903F08003802B0ED17B6844
:1023CC001B68DB6803F08003802B07D17B681B68DC
:1023DC006FF080021A61786800F06BFA7B681B68FA
:1023EC001B6903F04003402B0ED17B681B68DB6834
:1023FC0003F04003402B07D17B681B686FF0400251
:10240C001A61786800F0FCF87B681B681B6903F0A4
:10241C002003202B0ED17B681B68DB6803F02003A4
:10242C00202B07D17B681B686FF020021A6178683B
:10243C0000F036FA00BF0837BD4680BD80B584B0C9
:10244C0000AF786039600023FB737B6893F83C30F5
:10245C00012B01D10223B4E07B68012283F83C20DC
:10246C007B68022283F83D207B681B689B68BB60FD
:10247C00BB6823F07703BB60BB6823F47F43BB606E
:10248C007B681B68BA689A603B681B68B3F5005F91
:10249C003ED0B3F5005F00F28780B3F5805F00F0AB
:1024AC008680B3F5805F7FD8702B1AD0702B7BD8C9
:1024BC00602B50D0602B77D8502B3CD0502B73D83E
:1024CC00402B58D0402B6FD8302B64D0302B6BD88E
:1024DC00202B60D0202B67D8002B5CD0102B5AD02F
:1024EC0062E07B6818683B6899683B685A683B688F
:1024FC00DB6800F05EF97B681B689B68BB60BB689F
:10250C0043F07703BB607B681B68BA689A604FE046
:10251C007B6818683B6899683B685A683B68DB685D
:10252C0000F047F97B681B689A687B681B6842F46B
:10253C0080429A603CE07B6818683B6859683B684D
:10254C00DB681A4600F0BEF87B681B685021184601
:10255C0000F015F92CE07B6818683B6859683B68FB
:10256C00DB681A4600F0DCF87B681B6860211846B3
:10257C0000F005F91CE07B6818683B6859683B68FB
:10258C00DB681A4600F09EF87B681B6840211846F1
:10259C0000F0F5F80CE07B681A683B681B6819467C
:1025AC00104600F0ECF803E00123FB7300E000BFE1
:1025BC007B68012283F83D207B68002283F83C2055
:1025CC00FB7B18461037BD4680BD80B483B000AF8E
:1025DC00786000BF0C37BD4680BC704780B483B0B8
:1025EC0000AF786000BF0C37BD4680BC704780B42C
:1025FC0083B000AF786000BF0C37BD4680BC70471D
:10260C0080B483B000AF786000BF0C37BD4680BC8F
:10261C007047000080B485B000AF786039607B688B
:10262C001B68FB607B68254A934207D07B68B3F13B
:10263C00804F03D07B68224A934208D1FB6823F079
:10264C007003FB603B685B68FA681343FB607B6854
:10265C001A4A934207D07B68B3F1804F03D07B6852
:10266C00174A934208D1FB6823F44073FB603B6824
:10267C00DB68FA681343FB60FB6823F080023B685D
:10268C005B691343FB607B68FA681A603B689A6865
:10269C007B68DA623B681A687B689A627B68074AD7
:1026AC00934203D13B681A697B681A637B680122E9
:1026BC005A6100BF1437BD4680BC7047002C0140E6
:1026CC000004004080B487B000AFF860B9607A6055
:1026DC00FB681B6A7B61FB681B6A23F00102FB68C9
:1026EC001A62FB689B693B613B6923F0F0033B6119
:1026FC007B681B013A6913433B617B6923F00A0336
:10270C007B617A69BB6813437B61FB683A699A61A8
:10271C00FB687A691A6200BF1C37BD4680BC7047E3
:10272C0080B487B000AFF860B9607A60FB681B6A50
:10273C007B61FB681B6A23F01002FB681A62FB6862
:10274C009B693B613B6923F470433B617B681B03D2
:10275C003A6913433B617B6923F0A0037B61BB683F
:10276C001B017A6913437B61FB683A699A61FB68C8
:10277C007A691A6200BF1C37BD4680BC704780B4B2
:10278C0085B000AF786039607B689B68FB60FB6844
:10279C0023F07003FB603A68FB68134343F00703B4
:1027AC00FB607B68FA689A6000BF1437BD4680BC3A
:1027BC00704780B487B000AFF860B9607A603B6056
:1027CC00FB689B687B617B6923F47F437B613B687F
:1027DC001A027B681A43BB6813437A6913437B6103
:1027EC00FB687A699A6000BF1C37BD4680BC704795
:1027FC0080B485B000AF786039607B6893F83C306A
:10280C00012B01D1022341E07B68012283F83C209B
:10281C007B68022283F83D207B681B685B68FB6049
:10282C007B681B689B68BB60FB6823F07003FB60D4
:10283C003B681B68FA681343FB607B681B68FA688B
:10284C005A607B681B68144A934209D07B681B68EA
:10285C00B3F1804F04D07B681B68104A93420CD1B3
:10286C00BB6823F08003BB603B685B68BA681343AA
:10287C00BB607B681B68BA689A607B68012283F82E
:10288C003D207B68002283F83C2000231846143737
:10289C00BD4680BC704700BF002C014000040040C6
:1028AC0080B483B000AF786000BF0C37BD4680BCED
:1028BC00704780B483B000AF786000BF0C37BD4662
:1028CC0080BC704770B500260C4D0D4C641BA410D9
:1028DC00A64209D100F022F800260A4D0A4C641BCE
:1028EC00A410A64205D170BD55F8043B984701369B
:1028FC00EEE755F8043B98470136F2E764290008E7
:10290C006429000864290008682900080346024469
:10291C00934200D1704703F8011BF9E7F8B500BFEB
:10292C00F8BC08BC9E467047F8B500BFF8BC08BCA4
:04293C009E467047FC
:10294000000000000000000001020304060708095F
:1029500002030405060708090A0B0C0D0E0F1010E0
:042960000102000070
:042964003101000835
:042968000D01000855
:10296C000100000002000000030000000400000051
:10297C000A00000001020304050607080024F40005
:08298C00100000000100000032
:04000005080012C518
:00000001FF
